{
  "contractName": "sample",
  "abi": [
    {
      "inputs": [],
      "stateMutability": "nonpayable",
      "type": "constructor"
    },
    {
      "inputs": [],
      "name": "owner",
      "outputs": [
        {
          "internalType": "address",
          "name": "",
          "type": "address"
        }
      ],
      "stateMutability": "view",
      "type": "function",
      "constant": true
    },
    {
      "inputs": [],
      "name": "randomAddress",
      "outputs": [
        {
          "internalType": "address",
          "name": "",
          "type": "address"
        }
      ],
      "stateMutability": "view",
      "type": "function",
      "constant": true
    },
    {
      "inputs": [],
      "name": "randomNumber",
      "outputs": [
        {
          "internalType": "uint256",
          "name": "",
          "type": "uint256"
        }
      ],
      "stateMutability": "view",
      "type": "function",
      "constant": true
    },
    {
      "inputs": [
        {
          "internalType": "address",
          "name": "_randomAddress",
          "type": "address"
        }
      ],
      "name": "setRandomAddress",
      "outputs": [],
      "stateMutability": "nonpayable",
      "type": "function"
    },
    {
      "inputs": [
        {
          "internalType": "uint256",
          "name": "_randomNumber",
          "type": "uint256"
        }
      ],
      "name": "setRandomNumber",
      "outputs": [],
      "stateMutability": "nonpayable",
      "type": "function"
    },
    {
      "inputs": [],
      "name": "reverts",
      "outputs": [],
      "stateMutability": "pure",
      "type": "function",
      "constant": true
    }
  ],
  "bytecode": "0x608060405234801561001057600080fd5b50336000806101000a81548173ffffffffffffffffffffffffffffffffffffffff021916908373ffffffffffffffffffffffffffffffffffffffff16021790555061055e806100606000396000f3fe608060405234801561001057600080fd5b50600436106100625760003560e01c80633bccbbc9146100675780638da5cb5b14610071578063ccbac9f51461008f578063d4235984146100ad578063d5bee9f5146100c9578063d6bfea28146100e7575b600080fd5b61006f610103565b005b61007961013e565b6040516100869190610339565b60405180910390f35b610097610162565b6040516100a4919061036d565b60405180910390f35b6100c760048036038101906100c291906103b9565b610168565b005b6100d161023a565b6040516100de9190610339565b60405180910390f35b61010160048036038101906100fc9190610412565b610260565b005b6040517f08c379a00000000000000000000000000000000000000000000000000000000081526004016101359061049c565b60405180910390fd5b60008054906101000a900473ffffffffffffffffffffffffffffffffffffffff1681565b60025481565b60008054906101000a900473ffffffffffffffffffffffffffffffffffffffff1673ffffffffffffffffffffffffffffffffffffffff163373ffffffffffffffffffffffffffffffffffffffff16146101f6576040517f08c379a00000000000000000000000000000000000000000000000000000000081526004016101ed90610508565b60405180910390fd5b80600160006101000a81548173ffffffffffffffffffffffffffffffffffffffff021916908373ffffffffffffffffffffffffffffffffffffffff16021790555050565b600160009054906101000a900473ffffffffffffffffffffffffffffffffffffffff1681565b60008054906101000a900473ffffffffffffffffffffffffffffffffffffffff1673ffffffffffffffffffffffffffffffffffffffff163373ffffffffffffffffffffffffffffffffffffffff16146102ee576040517f08c379a00000000000000000000000000000000000000000000000000000000081526004016102e590610508565b60405180910390fd5b8060028190555050565b600073ffffffffffffffffffffffffffffffffffffffff82169050919050565b6000610323826102f8565b9050919050565b61033381610318565b82525050565b600060208201905061034e600083018461032a565b92915050565b6000819050919050565b61036781610354565b82525050565b6000602082019050610382600083018461035e565b92915050565b600080fd5b61039681610318565b81146103a157600080fd5b50565b6000813590506103b38161038d565b92915050565b6000602082840312156103cf576103ce610388565b5b60006103dd848285016103a4565b91505092915050565b6103ef81610354565b81146103fa57600080fd5b50565b60008135905061040c816103e6565b92915050565b60006020828403121561042857610427610388565b5b6000610436848285016103fd565b91505092915050565b600082825260208201905092915050565b7f52657665727465642077697468207265766572742e0000000000000000000000600082015250565b600061048660158361043f565b915061049182610450565b602082019050919050565b600060208201905081810360008301526104b581610479565b9050919050565b7f4f6e6c79204f776e65722e000000000000000000000000000000000000000000600082015250565b60006104f2600b8361043f565b91506104fd826104bc565b602082019050919050565b60006020820190508181036000830152610521816104e5565b905091905056fea26469706673582212209b85704d6f8a2df9244df8e80abef2cd8c81febc6caead0be8ffe33b9868a08964736f6c63430008110033",
  "immutableReferences": {},
  "source": "//SPDX-License-Identifier: MIT\npragma solidity ^0.8.17;\n\ncontract sample{\n    address public owner;\n    address public randomAddress;\n    uint256 public randomNumber;\n\n    constructor(){\n        owner = msg.sender;\n    }\n\n    modifier onlyOwner(){\n        require(msg.sender == owner, \"Only Owner.\"); \n        _;\n    }\n\n    function setRandomAddress(address _randomAddress)public onlyOwner{ // in this case I should get revert reason \"Only Owner.\"\n        randomAddress = _randomAddress;\n    }\n\n        function setRandomNumber(uint256 _randomNumber)public onlyOwner{ // in this case I should get revert reason \"Only Owner.\"\n        randomNumber = _randomNumber;\n    }\n\n    function reverts() pure public { // in this case I am geting the revert reason\n        revert(\"Reverted with revert.\");\n    }\n} ",
  "sourcePath": "/home/neosoft/S/ErrorReason/solidity/contracts/sample.sol",
  "compiler": {
    "name": "solc",
    "version": "0.8.17+commit.8df45f5f.Emscripten.clang"
  },
  "schemaVersion": "3.4.11",
  "updatedAt": "2023-04-07T04:20:59.028Z",
  "networkType": "ethereum",
  "devdoc": {
    "kind": "dev",
    "methods": {},
    "version": 1
  },
  "userdoc": {
    "kind": "user",
    "methods": {},
    "version": 1
  }
}